{
  "contractName": "LandRegistry",
  "abi": [
    {
      "anonymous": false,
      "inputs": [
        {
          "indexed": true,
          "internalType": "uint256",
          "name": "landRegID",
          "type": "uint256"
        },
        {
          "indexed": true,
          "internalType": "address",
          "name": "ListedBy",
          "type": "address"
        },
        {
          "indexed": false,
          "internalType": "uint256",
          "name": "amount",
          "type": "uint256"
        },
        {
          "indexed": false,
          "internalType": "uint256",
          "name": "timestamp",
          "type": "uint256"
        }
      ],
      "name": "LandListedForSale",
      "type": "event"
    },
    {
      "anonymous": false,
      "inputs": [
        {
          "indexed": true,
          "internalType": "uint256",
          "name": "landRegID",
          "type": "uint256"
        },
        {
          "indexed": true,
          "internalType": "address",
          "name": "RequestedBy",
          "type": "address"
        },
        {
          "indexed": true,
          "internalType": "address",
          "name": "AcceptedBy",
          "type": "address"
        },
        {
          "indexed": false,
          "internalType": "uint256",
          "name": "offeredAmount",
          "type": "uint256"
        },
        {
          "indexed": false,
          "internalType": "uint256",
          "name": "timestamp",
          "type": "uint256"
        }
      ],
      "name": "LandPurchaseAgreementAccepted",
      "type": "event"
    },
    {
      "anonymous": false,
      "inputs": [
        {
          "indexed": true,
          "internalType": "uint256",
          "name": "landRegID",
          "type": "uint256"
        },
        {
          "indexed": true,
          "internalType": "address",
          "name": "RequestedBy",
          "type": "address"
        },
        {
          "indexed": false,
          "internalType": "uint256",
          "name": "offeredAmount",
          "type": "uint256"
        },
        {
          "indexed": false,
          "internalType": "uint256",
          "name": "timestamp",
          "type": "uint256"
        }
      ],
      "name": "LandPurchaseRequested",
      "type": "event"
    },
    {
      "anonymous": false,
      "inputs": [
        {
          "indexed": true,
          "internalType": "uint256",
          "name": "landRegID",
          "type": "uint256"
        },
        {
          "indexed": true,
          "internalType": "address",
          "name": "LandRegisteredBy",
          "type": "address"
        },
        {
          "indexed": false,
          "internalType": "uint256",
          "name": "timestamp",
          "type": "uint256"
        }
      ],
      "name": "LandRegistered",
      "type": "event"
    },
    {
      "anonymous": false,
      "inputs": [
        {
          "indexed": true,
          "internalType": "uint256",
          "name": "landRegID",
          "type": "uint256"
        },
        {
          "indexed": true,
          "internalType": "address",
          "name": "from",
          "type": "address"
        },
        {
          "indexed": true,
          "internalType": "address",
          "name": "to",
          "type": "address"
        },
        {
          "indexed": false,
          "internalType": "uint256",
          "name": "timestamp",
          "type": "uint256"
        }
      ],
      "name": "OwnershipTransferred",
      "type": "event"
    },
    {
      "anonymous": false,
      "inputs": [
        {
          "indexed": true,
          "internalType": "uint256",
          "name": "landRegID",
          "type": "uint256"
        },
        {
          "indexed": true,
          "internalType": "address",
          "name": "paymentFrom",
          "type": "address"
        },
        {
          "indexed": true,
          "internalType": "address",
          "name": "paymentTo",
          "type": "address"
        },
        {
          "indexed": false,
          "internalType": "uint256",
          "name": "amount",
          "type": "uint256"
        },
        {
          "indexed": false,
          "internalType": "uint256",
          "name": "timestamp",
          "type": "uint256"
        }
      ],
      "name": "PaymentSuccessful",
      "type": "event"
    },
    {
      "inputs": [
        {
          "internalType": "uint256",
          "name": "",
          "type": "uint256"
        }
      ],
      "name": "landForSaleArray",
      "outputs": [
        {
          "internalType": "uint256",
          "name": "",
          "type": "uint256"
        }
      ],
      "stateMutability": "view",
      "type": "function",
      "constant": true
    },
    {
      "inputs": [
        {
          "internalType": "uint256",
          "name": "",
          "type": "uint256"
        }
      ],
      "name": "landIDArray",
      "outputs": [
        {
          "internalType": "uint256",
          "name": "",
          "type": "uint256"
        }
      ],
      "stateMutability": "view",
      "type": "function",
      "constant": true
    },
    {
      "inputs": [
        {
          "internalType": "uint256",
          "name": "_landRegID",
          "type": "uint256"
        },
        {
          "internalType": "string",
          "name": "_ipfsHash",
          "type": "string"
        },
        {
          "internalType": "string",
          "name": "_landAddress",
          "type": "string"
        },
        {
          "internalType": "uint256",
          "name": "_amount",
          "type": "uint256"
        },
        {
          "internalType": "address",
          "name": "_ownedBy",
          "type": "address"
        },
        {
          "internalType": "bool",
          "name": "_isGovtApproved",
          "type": "bool"
        }
      ],
      "name": "RegisterLandRecords",
      "outputs": [
        {
          "internalType": "bool",
          "name": "",
          "type": "bool"
        }
      ],
      "stateMutability": "nonpayable",
      "type": "function"
    },
    {
      "inputs": [
        {
          "internalType": "uint256",
          "name": "_landRegID",
          "type": "uint256"
        }
      ],
      "name": "getLandRecordDetailsByID",
      "outputs": [
        {
          "internalType": "uint256",
          "name": "",
          "type": "uint256"
        },
        {
          "internalType": "string",
          "name": "",
          "type": "string"
        },
        {
          "internalType": "string",
          "name": "",
          "type": "string"
        },
        {
          "internalType": "uint256",
          "name": "",
          "type": "uint256"
        },
        {
          "internalType": "address",
          "name": "",
          "type": "address"
        },
        {
          "internalType": "bool",
          "name": "",
          "type": "bool"
        },
        {
          "internalType": "bool",
          "name": "",
          "type": "bool"
        }
      ],
      "stateMutability": "view",
      "type": "function",
      "constant": true
    },
    {
      "inputs": [
        {
          "internalType": "uint256",
          "name": "_landRegID",
          "type": "uint256"
        },
        {
          "internalType": "uint256",
          "name": "_saleAmount",
          "type": "uint256"
        }
      ],
      "name": "ListLandForSale",
      "outputs": [
        {
          "internalType": "bool",
          "name": "",
          "type": "bool"
        }
      ],
      "stateMutability": "nonpayable",
      "type": "function"
    },
    {
      "inputs": [],
      "name": "ListAllLandsListedForSale",
      "outputs": [
        {
          "internalType": "uint256[]",
          "name": "",
          "type": "uint256[]"
        }
      ],
      "stateMutability": "view",
      "type": "function",
      "constant": true
    },
    {
      "inputs": [],
      "name": "ListAllLandRecords",
      "outputs": [
        {
          "internalType": "uint256[]",
          "name": "",
          "type": "uint256[]"
        }
      ],
      "stateMutability": "view",
      "type": "function",
      "constant": true
    },
    {
      "inputs": [
        {
          "internalType": "uint256",
          "name": "_landRegID",
          "type": "uint256"
        },
        {
          "internalType": "uint256",
          "name": "_amount",
          "type": "uint256"
        }
      ],
      "name": "quoteForLand",
      "outputs": [
        {
          "internalType": "bool",
          "name": "",
          "type": "bool"
        }
      ],
      "stateMutability": "nonpayable",
      "type": "function"
    },
    {
      "inputs": [
        {
          "internalType": "uint256",
          "name": "_landRegID",
          "type": "uint256"
        }
      ],
      "name": "listAllPurchaseRequests",
      "outputs": [
        {
          "internalType": "uint256",
          "name": "",
          "type": "uint256"
        },
        {
          "internalType": "uint256",
          "name": "",
          "type": "uint256"
        },
        {
          "internalType": "address",
          "name": "",
          "type": "address"
        },
        {
          "internalType": "uint256",
          "name": "",
          "type": "uint256"
        },
        {
          "internalType": "bool",
          "name": "",
          "type": "bool"
        }
      ],
      "stateMutability": "view",
      "type": "function",
      "constant": true
    },
    {
      "inputs": [
        {
          "internalType": "uint256",
          "name": "_landRegID",
          "type": "uint256"
        },
        {
          "internalType": "address",
          "name": "_RequestedBy",
          "type": "address"
        },
        {
          "internalType": "uint256",
          "name": "_amount",
          "type": "uint256"
        }
      ],
      "name": "AcceptPurchaseRequest",
      "outputs": [
        {
          "internalType": "bool",
          "name": "",
          "type": "bool"
        }
      ],
      "stateMutability": "nonpayable",
      "type": "function"
    },
    {
      "inputs": [
        {
          "internalType": "uint256",
          "name": "_landRegID",
          "type": "uint256"
        },
        {
          "internalType": "address",
          "name": "_ownerAddress",
          "type": "address"
        },
        {
          "internalType": "uint256",
          "name": "_amount",
          "type": "uint256"
        }
      ],
      "name": "initiatePayment",
      "outputs": [
        {
          "internalType": "bool",
          "name": "",
          "type": "bool"
        }
      ],
      "stateMutability": "payable",
      "type": "function",
      "payable": true
    },
    {
      "inputs": [
        {
          "internalType": "uint256",
          "name": "_landRegID",
          "type": "uint256"
        },
        {
          "internalType": "address",
          "name": "_buyerAddress",
          "type": "address"
        }
      ],
      "name": "TransferLandOwnershipToBuyer",
      "outputs": [
        {
          "internalType": "bool",
          "name": "",
          "type": "bool"
        }
      ],
      "stateMutability": "nonpayable",
      "type": "function"
    }
  ],
  "bytecode": "0x6080806040523461001657610e6d908161001c8239f35b600080fdfe608080604052600436101561001357600080fd5b7c010000000000000000000000000000000000000000000000000000000060003504908163485df73b14610ba05750806356758d8a14610b255780637264ea4914610a945780638cdf6a99146109e9578063980b230d1461096c578063a07d134d14610862578063b70093a11461073f578063d46475c6146106cc578063d55593ab146105fd578063eb318b8d146101a0578063f0fb8eb81461014f5763fce80329146100bf57600080fd5b3461014a57600036600319011261014a57604051806005549182815260208091019260056000527f036b6384b5eca791c62761152d0c79bb0604c104a5fb6f4eb0703f3154bb3db0916000905b8282106101335761012f8561012381890382610cc5565b60405191829182610bee565b0390f35b83548652948501946001938401939091019061010c565b600080fd5b3461014a57602036600319011261014a5760043560055481101561014a5760209060056000527f036b6384b5eca791c62761152d0c79bb0604c104a5fb6f4eb0703f3154bb3db00154604051908152f35b3461014a5760c036600319011261014a5760243567ffffffffffffffff811161014a576101d1903690600401610ce7565b60443567ffffffffffffffff811161014a576101f1903690600401610ce7565b90608435600160a060020a038116810361014a5760a43591821515830361014a576004356000526001602052604060002090600435825580519067ffffffffffffffff82116104185781906102496001850154610d3e565b601f81116105aa575b50602090601f83116001146105365760009261052b575b5050816002029160080260020a6000190419161760018201555b835167ffffffffffffffff8111610418576102a16002830154610d3e565b601f81116104df575b506020601f82116001146104525790806004939275010000000000000000000000000000000000000000009697600092610447575b5050816002029160080260020a6000190419161760028201555b60643560038201550192600160a060020a0374ff0000000000000000000000000000000000000000740100000000000000000000000000000000000000008654931515021692169075ffffffffffffffffffffffffffffffffffffffffffff19161717179055600454680100000000000000008110156104185760018101806004558110156103e9576004600052600435907f8a35acfbc15ff81a39ae7d344fd709f28e8600b4aa8c65c6b64bfe7fe36bd19b015560405142815233907ff24be2a303dbde08fb8c0bfcf3a03e9cdbfb24c20a9ffd385eb3a83deae19d0b602060043592a3602060405160018152f35b7f4e487b7100000000000000000000000000000000000000000000000000000000600052603260045260246000fd5b7f4e487b7100000000000000000000000000000000000000000000000000000000600052604160045260246000fd5b0151905087806102df565b6002830160005260206000209560005b601f19841681106104c75750827501000000000000000000000000000000000000000000969760019360029360049796601f198116106104ac575b505050020160028201556102f9565b01516008601f841602840a600019041916905588808061049d565b82820151885560019097019660209283019201610462565b6002830160005260206000206020601f84010481019160208410610521575b601f602091010401905b81811061051557506102aa565b60008155600101610508565b90915081906104fe565b015190508680610269565b91506001840160005260206000209160005b601f19851681106105925750918391600293600195601f19811610610577575b50505002016001820155610283565b01516008601f841602840a6000190419169055878080610568565b91926020600181928685015181550194019201610548565b9091506001840160005260206000206020601f8501048101602085106105f6575b90849392915b6020601f840104820181106105e7575050610252565b600081558594506001016105d1565b50806105cb565b3461014a5761060b36610c29565b908060005260026020526003604060002060018101600160ff198254161790558360028201550133600160a060020a0319825416179055600554680100000000000000008110156104185760018101806005558110156103e957819060056000527f036b6384b5eca791c62761152d0c79bb0604c104a5fb6f4eb0703f3154bb3db001556040519182524260208301527f24c9b99aa52c448be0381d86264f36d6450d712e5aad25f8c01533c7ba5c654360403393a3602060405160018152f35b3461014a576106da36610c7f565b90918060005260036020526004604060002001600160ff198254161790556040519182524260208301527f35ad406117fdf09a7ab5ad3d27f4c7473583c1ca4b3b858c44addeac268f9b106040600160a060020a0333951693a4602060405160018152f35b600160a060020a0361075036610c7f565b9192169160003415610859575b600080808093873491f1156107fb578060005260036020526004604060002001610100815475ffffffffffffffffffffffffffffffffffffffff0000620100003302169075ffffffffffffffffffffffffffffffffffffffffff001916171790556040519182524260208301527f3aa9f8bc0f48e01ff3d0a39003451fe7702bc15fe48acab0359a055d946ec93f60403393a4602060405160018152f35b60646040517f08c379a000000000000000000000000000000000000000000000000000000000815260206004820152600e60248201527f5061796d656e74204661696c65640000000000000000000000000000000000006044820152fd5b506108fc61075d565b3461014a57602036600319011261014a57600435600052600160205260406000206040519061089082610ca9565b805482526108a060018201610d92565b90602083019182526108b460028201610d92565b9283604082015260046003830154928360608401520154600160a060020a03811680608084015261095360ff750100000000000000000000000000000000000000000081740100000000000000000000000000000000000000008604161515948560a088015204161515938460c082015251955196610945604051988998895260e060208a015260e0890190610c3f565b908782036040890152610c3f565b936060860152608085015260a084015260c08301520390f35b3461014a5761097a36610c29565b9080600052600360205260406000208181558260018201556002810133600160a060020a03198254161790556003429101556040519182524260208301527f68d1f4e1247b922b707f0e060d1621538435acbe0de8c1feb3d8b0a2ac48582160403393a3602060405160018152f35b3461014a57602036600319011261014a57600435600052600360205260a06040600020604051610a1881610ca9565b815491828252600181015491826020820152600160a060020a0392836002840154169182604082015260c060046003860154958660608501520154956201000060ff881615159788608086015260ff61010082041615158b86015204169101526040519485526020850152604084015260608301526080820152f35b3461014a57604036600319011261014a5760043560243590600160a060020a03821680920361014a5780600052600160205260046040600020018275ff00ffffffffffffffffffffffffffffffffffffffff19825416179055604051904282527f06f354ec7b9d2ca4e029f73ccb9119943a48c3295704dd66ca8beda0c7bae33f60203393a4602060405160018152f35b3461014a57600036600319011261014a57604051806004549182815260208091019260046000527f8a35acfbc15ff81a39ae7d344fd709f28e8600b4aa8c65c6b64bfe7fe36bd19b916000905b828210610b895761012f8561012381890382610cc5565b835486529485019460019384019390910190610b72565b3461014a57602036600319011261014a576004359060045482101561014a5760209160046000527f8a35acfbc15ff81a39ae7d344fd709f28e8600b4aa8c65c6b64bfe7fe36bd19b01548152f35b6020908160408183019282815285518094520193019160005b828110610c15575050505090565b835185529381019392810192600101610c07565b604090600319011261014a576004359060243590565b919082519283825260005b848110610c6b575050826000602080949584010152601f8019910116010190565b602081830181015184830182015201610c4a565b606090600319011261014a5760043590602435600160a060020a038116810361014a579060443590565b60e0810190811067ffffffffffffffff82111761041857604052565b90601f8019910116810190811067ffffffffffffffff82111761041857604052565b81601f8201121561014a5780359067ffffffffffffffff82116104185760405192610d1c601f8401601f191660200185610cc5565b8284526020838301011161014a57816000926020809301838601378301015290565b9060016002830492168015610d88575b6020831014610d5957565b7f4e487b7100000000000000000000000000000000000000000000000000000000600052602260045260246000fd5b91607f1691610d4e565b9060405191826000825492610da684610d3e565b908184526001948581169081600014610e155750600114610dd2575b5050610dd092500383610cc5565b565b9093915060005260209081600020936000915b818310610dfd575050610dd093508201013880610dc2565b85548884018501529485019487945091830191610de5565b915050610dd094506020925060ff191682840152151581028201013880610dc256fea2646970667358221220bc83004bc9ce3fd9d811cfbec68af51911dcb2d522db3fe7410641da12534eae64736f6c63430008130033",
  "immutableReferences": {},
  "source": "// SPDX-License-Identifier: GPL-3.0\n\npragma solidity 0.8.19;\n\ncontract LandRegistry {\n    address platformOwner;\n\n    struct LandRecordData {\n        uint256 landRegID;\n        string ipfsHash;\n        string landAddress;\n        uint256 amount;\n        address payable ownedBy;\n        bool isGovtApproved;\n        bool isAvailable;\n    }\n\n    struct LandSaleRecord {\n        uint256 landRegID;\n        bool saleStatus;\n        uint256 saleAmount;\n        address ListedBy;\n        uint256 timestamp;\n    }\n\n    struct LandPurchaseRequest {\n        uint256 landRegID;\n        uint256 amount;\n        address requestedBy;\n        uint256 timestamp;\n        bool Accepted;\n        bool paymentStatus;\n        address PaymentFrom;\n    }\n\n    /*\nEvent Definitions\n\n\n*/\n\n    event LandRegistered(\n        uint256 indexed landRegID,\n        address indexed LandRegisteredBy,\n        uint256 timestamp\n    );\n    event LandListedForSale(\n        uint256 indexed landRegID,\n        address indexed ListedBy,\n        uint256 amount,\n        uint256 timestamp\n    );\n    event LandPurchaseRequested(\n        uint256 indexed landRegID,\n        address indexed RequestedBy,\n        uint256 offeredAmount,\n        uint256 timestamp\n    );\n    event LandPurchaseAgreementAccepted(\n        uint256 indexed landRegID,\n        address indexed RequestedBy,\n        address indexed AcceptedBy,\n        uint256 offeredAmount,\n        uint256 timestamp\n    );\n    event OwnershipTransferred(\n        uint256 indexed landRegID,\n        address indexed from,\n        address indexed to,\n        uint256 timestamp\n    );\n    event PaymentSuccessful(\n        uint256 indexed landRegID,\n        address indexed paymentFrom,\n        address indexed paymentTo,\n        uint256 amount,\n        uint256 timestamp\n    );\n\n    /*\nMapping Definitions\n*/\n    mapping(uint256 => LandRecordData) landIdDataMap;\n    mapping(uint256 => LandSaleRecord) landIdSaleMap;\n    mapping(uint256 => LandPurchaseRequest) landPurchaseMap;\n\n    /*\nArray Declarations\n\n*/\n    uint256[] public landIDArray;\n    uint256[] public landForSaleArray;\n\n    /*\nuint256\nFunction Definitions\n\n*/\n\n    function RegisterLandRecords(\n        uint256 _landRegID,\n        string memory _ipfsHash,\n        string memory _landAddress,\n        uint256 _amount,\n        address _ownedBy,\n        bool _isGovtApproved\n    ) public returns (bool) {\n        LandRecordData storage landObj = landIdDataMap[_landRegID];\n        landObj.landRegID = _landRegID;\n        landObj.ipfsHash = _ipfsHash;\n        landObj.landAddress = _landAddress;\n        landObj.amount = _amount;\n        landObj.ownedBy = payable(_ownedBy);\n        landObj.isGovtApproved = _isGovtApproved;\n        landObj.isAvailable = true;\n        landIDArray.push(_landRegID);\n        emit LandRegistered(_landRegID, msg.sender, block.timestamp);\n        return true;\n    }\n\n    function getLandRecordDetailsByID(\n        uint256 _landRegID\n    )\n        public\n        view\n        returns (\n            uint256,\n            string memory,\n            string memory,\n            uint256,\n            address,\n            bool,\n            bool\n        )\n    {\n        LandRecordData memory landObj = landIdDataMap[_landRegID];\n\n        return (\n            landObj.landRegID,\n            landObj.ipfsHash,\n            landObj.landAddress,\n            landObj.amount,\n            landObj.ownedBy,\n            landObj.isGovtApproved,\n            landObj.isAvailable\n        );\n    }\n\n    function ListLandForSale(\n        uint256 _landRegID,\n        uint256 _saleAmount\n    ) public returns (bool) {\n        LandSaleRecord storage saleObj = landIdSaleMap[_landRegID];\n        saleObj.saleStatus = true;\n        saleObj.saleAmount = _saleAmount;\n        saleObj.ListedBy = msg.sender;\n\n        landForSaleArray.push(_landRegID);\n\n        emit LandListedForSale(\n            _landRegID,\n            msg.sender,\n            _saleAmount,\n            block.timestamp\n        );\n        return true;\n    }\n\n    function ListAllLandsListedForSale()\n        public\n        view\n        returns (uint256[] memory)\n    {\n        return landForSaleArray;\n    }\n\n    function ListAllLandRecords() public view returns (uint256[] memory) {\n        return landIDArray;\n    }\n\n    function quoteForLand(\n        uint256 _landRegID,\n        uint256 _amount\n    ) public returns (bool) {\n        LandPurchaseRequest storage pObj = landPurchaseMap[_landRegID];\n        pObj.landRegID = _landRegID;\n        pObj.amount = _amount;\n        pObj.requestedBy = msg.sender;\n        pObj.timestamp = block.timestamp;\n\n        emit LandPurchaseRequested(\n            _landRegID,\n            msg.sender,\n            _amount,\n            block.timestamp\n        );\n\n        return true;\n    }\n\n    function listAllPurchaseRequests(\n        uint256 _landRegID\n    ) public view returns (uint256, uint256, address, uint256, bool) {\n        LandPurchaseRequest memory pObj = landPurchaseMap[_landRegID];\n        return (\n            pObj.landRegID,\n            pObj.amount,\n            pObj.requestedBy,\n            pObj.timestamp,\n            pObj.Accepted\n        );\n    }\n\n    function AcceptPurchaseRequest(\n        uint256 _landRegID,\n        address _RequestedBy,\n        uint256 _amount\n    ) public returns (bool) {\n        LandPurchaseRequest storage lObj = landPurchaseMap[_landRegID];\n        lObj.Accepted = true;\n        emit LandPurchaseAgreementAccepted(\n            _landRegID,\n            _RequestedBy,\n            msg.sender,\n            _amount,\n            block.timestamp\n        );\n        return true;\n    }\n\n    function initiatePayment(\n        uint256 _landRegID,\n        address _ownerAddress,\n        uint256 _amount\n    ) public payable  returns (bool) {\n        bool sent = payable(_ownerAddress).send(msg.value);\n        require(sent, \"Payment Failed\");\n        LandPurchaseRequest storage lObj = landPurchaseMap[_landRegID];\n        lObj.paymentStatus = true;\n        lObj.PaymentFrom = msg.sender;\n        emit PaymentSuccessful(\n            _landRegID,\n            msg.sender,\n            _ownerAddress,\n            _amount,\n            block.timestamp\n        );\n        return true;\n    }\n\n    function TransferLandOwnershipToBuyer(\n        uint256 _landRegID,\n        address _buyerAddress\n    ) public returns (bool) {\n        LandRecordData storage landObj = landIdDataMap[_landRegID];\n        landObj.ownedBy = payable(_buyerAddress);\n        landObj.isAvailable = false;\n        emit OwnershipTransferred(\n            _landRegID,\n            msg.sender,\n            _buyerAddress,\n            block.timestamp\n        );\n        return true;\n    }\n}\n",
  "sourcePath": "/home/user/Desktop/Land_DAPP/contracts/LandRegistry.sol",
  "compiler": {
    "name": "solc",
    "version": "0.8.19+commit.7dd6d404.Emscripten.clang"
  },
  "schemaVersion": "3.4.7",
  "updatedAt": "2023-03-23T12:40:10.732Z",
  "networkType": "ethereum",
  "devdoc": {
    "kind": "dev",
    "methods": {},
    "version": 1
  },
  "userdoc": {
    "kind": "user",
    "methods": {},
    "version": 1
  }
}